{
  "_format": "hh-sol-artifact-1",
  "contractName": "CPAMM",
  "sourceName": "contracts/CPAMM.sol",
  "abi": [
    {
      "inputs": [
        {
          "internalType": "address",
          "name": "_token0",
          "type": "address"
        },
        {
          "internalType": "address",
          "name": "_token1",
          "type": "address"
        }
      ],
      "stateMutability": "nonpayable",
      "type": "constructor"
    },
    {
      "anonymous": false,
      "inputs": [
        {
          "indexed": true,
          "internalType": "address",
          "name": "_from",
          "type": "address"
        },
        {
          "indexed": true,
          "internalType": "address",
          "name": "_tokenIn",
          "type": "address"
        },
        {
          "indexed": false,
          "internalType": "uint256",
          "name": "_amountIn",
          "type": "uint256"
        },
        {
          "indexed": false,
          "internalType": "uint256",
          "name": "_amountOut",
          "type": "uint256"
        }
      ],
      "name": "Swap",
      "type": "event"
    },
    {
      "inputs": [
        {
          "internalType": "uint256",
          "name": "_amount0",
          "type": "uint256"
        },
        {
          "internalType": "uint256",
          "name": "_amount1",
          "type": "uint256"
        }
      ],
      "name": "addLiquidity",
      "outputs": [
        {
          "internalType": "uint256",
          "name": "shares",
          "type": "uint256"
        }
      ],
      "stateMutability": "nonpayable",
      "type": "function"
    },
    {
      "inputs": [
        {
          "internalType": "address",
          "name": "",
          "type": "address"
        }
      ],
      "name": "balanceOf",
      "outputs": [
        {
          "internalType": "uint256",
          "name": "",
          "type": "uint256"
        }
      ],
      "stateMutability": "view",
      "type": "function"
    },
    {
      "inputs": [
        {
          "internalType": "uint256",
          "name": "_shares",
          "type": "uint256"
        }
      ],
      "name": "removeLiquidity",
      "outputs": [
        {
          "internalType": "uint256",
          "name": "amount0",
          "type": "uint256"
        },
        {
          "internalType": "uint256",
          "name": "amount1",
          "type": "uint256"
        }
      ],
      "stateMutability": "nonpayable",
      "type": "function"
    },
    {
      "inputs": [],
      "name": "reserve0",
      "outputs": [
        {
          "internalType": "uint256",
          "name": "",
          "type": "uint256"
        }
      ],
      "stateMutability": "view",
      "type": "function"
    },
    {
      "inputs": [],
      "name": "reserve1",
      "outputs": [
        {
          "internalType": "uint256",
          "name": "",
          "type": "uint256"
        }
      ],
      "stateMutability": "view",
      "type": "function"
    },
    {
      "inputs": [
        {
          "internalType": "address",
          "name": "_tokenIn",
          "type": "address"
        },
        {
          "internalType": "uint256",
          "name": "_amountIn",
          "type": "uint256"
        }
      ],
      "name": "swap",
      "outputs": [
        {
          "internalType": "uint256",
          "name": "amountOut",
          "type": "uint256"
        }
      ],
      "stateMutability": "nonpayable",
      "type": "function"
    },
    {
      "inputs": [],
      "name": "token0",
      "outputs": [
        {
          "internalType": "contract IERC20",
          "name": "",
          "type": "address"
        }
      ],
      "stateMutability": "view",
      "type": "function"
    },
    {
      "inputs": [],
      "name": "token1",
      "outputs": [
        {
          "internalType": "contract IERC20",
          "name": "",
          "type": "address"
        }
      ],
      "stateMutability": "view",
      "type": "function"
    },
    {
      "inputs": [],
      "name": "totalSupply",
      "outputs": [
        {
          "internalType": "uint256",
          "name": "",
          "type": "uint256"
        }
      ],
      "stateMutability": "view",
      "type": "function"
    }
  ],
  "bytecode": "0x60c06040523480156200001157600080fd5b50604051620018e6380380620018e6833981810160405281019062000037919062000111565b8173ffffffffffffffffffffffffffffffffffffffff1660808173ffffffffffffffffffffffffffffffffffffffff16815250508073ffffffffffffffffffffffffffffffffffffffff1660a08173ffffffffffffffffffffffffffffffffffffffff1681525050505062000158565b600080fd5b600073ffffffffffffffffffffffffffffffffffffffff82169050919050565b6000620000d982620000ac565b9050919050565b620000eb81620000cc565b8114620000f757600080fd5b50565b6000815190506200010b81620000e0565b92915050565b600080604083850312156200012b576200012a620000a7565b5b60006200013b85828601620000fa565b92505060206200014e85828601620000fa565b9150509250929050565b60805160a0516116f1620001f5600039600081816102e2015281816104cc015281816106150152818161087a0152818161097601528181610aa601528181610b1401528181610d240152610e360152600081816101f1015281816102440152818161042d01528181610574015281816107e00152818161092101528181610a4a01528181610ac701528181610af30152610c8a01526116f16000f3fe608060405234801561001057600080fd5b50600436106100935760003560e01c806370a082311161006657806370a08231146101105780639c8f9f23146101405780639cd441da14610171578063d004f0f7146101a1578063d21220a7146101d157610093565b80630dfe16811461009857806318160ddd146100b6578063443cb4bc146100d45780635a76f25e146100f2575b600080fd5b6100a06101ef565b6040516100ad9190611063565b60405180910390f35b6100be610213565b6040516100cb9190611097565b60405180910390f35b6100dc610219565b6040516100e99190611097565b60405180910390f35b6100fa61021f565b6040516101079190611097565b60405180910390f35b61012a600480360381019061012591906110f5565b610225565b6040516101379190611097565b60405180910390f35b61015a6004803603810190610155919061114e565b61023d565b60405161016892919061117b565b60405180910390f35b61018b600480360381019061018691906111a4565b610570565b6040516101989190611097565b60405180910390f35b6101bb60048036038101906101b691906111e4565b61091d565b6040516101c89190611097565b60405180910390f35b6101d9610e34565b6040516101e69190611063565b60405180910390f35b7f000000000000000000000000000000000000000000000000000000000000000081565b60025481565b60005481565b60015481565b60036020528060005260406000206000915090505481565b60008060007f000000000000000000000000000000000000000000000000000000000000000073ffffffffffffffffffffffffffffffffffffffff166370a08231306040518263ffffffff1660e01b815260040161029b9190611233565b602060405180830381865afa1580156102b8573d6000803e3d6000fd5b505050506040513d601f19601f820116820180604052508101906102dc9190611263565b905060007f000000000000000000000000000000000000000000000000000000000000000073ffffffffffffffffffffffffffffffffffffffff166370a08231306040518263ffffffff1660e01b81526004016103399190611233565b602060405180830381865afa158015610356573d6000803e3d6000fd5b505050506040513d601f19601f8201168201806040525081019061037a9190611263565b9050600254828661038b91906112bf565b6103959190611330565b935060025481866103a691906112bf565b6103b09190611330565b92506000841180156103c25750600083115b610401576040517f08c379a00000000000000000000000000000000000000000000000000000000081526004016103f8906113be565b60405180910390fd5b61040b3386610e58565b61042b848361041a91906113de565b848361042691906113de565b610ecb565b7f000000000000000000000000000000000000000000000000000000000000000073ffffffffffffffffffffffffffffffffffffffff1663a9059cbb33866040518363ffffffff1660e01b8152600401610486929190611412565b6020604051808303816000875af11580156104a5573d6000803e3d6000fd5b505050506040513d601f19601f820116820180604052508101906104c99190611473565b507f000000000000000000000000000000000000000000000000000000000000000073ffffffffffffffffffffffffffffffffffffffff1663a9059cbb33856040518363ffffffff1660e01b8152600401610525929190611412565b6020604051808303816000875af1158015610544573d6000803e3d6000fd5b505050506040513d601f19601f820116820180604052508101906105689190611473565b505050915091565b60007f000000000000000000000000000000000000000000000000000000000000000073ffffffffffffffffffffffffffffffffffffffff166323b872dd3330866040518463ffffffff1660e01b81526004016105cf939291906114a0565b6020604051808303816000875af11580156105ee573d6000803e3d6000fd5b505050506040513d601f19601f820116820180604052508101906106129190611473565b507f000000000000000000000000000000000000000000000000000000000000000073ffffffffffffffffffffffffffffffffffffffff166323b872dd3330856040518463ffffffff1660e01b8152600401610670939291906114a0565b6020604051808303816000875af115801561068f573d6000803e3d6000fd5b505050506040513d601f19601f820116820180604052508101906106b39190611473565b506000805411806106c657506000600154115b1561072857826001546106d991906112bf565b826000546106e791906112bf565b14610727576040517f08c379a000000000000000000000000000000000000000000000000000000000815260040161071e90611523565b60405180910390fd5b5b60006002540361074d57610746828461074191906112bf565b610edd565b905061078e565b61078b6000546002548561076191906112bf565b61076b9190611330565b6001546002548561077c91906112bf565b6107869190611330565b610f57565b90505b600081116107d1576040517f08c379a00000000000000000000000000000000000000000000000000000000081526004016107c89061158f565b60405180910390fd5b6107db3382610f71565b6109177f000000000000000000000000000000000000000000000000000000000000000073ffffffffffffffffffffffffffffffffffffffff166370a08231306040518263ffffffff1660e01b81526004016108379190611233565b602060405180830381865afa158015610854573d6000803e3d6000fd5b505050506040513d601f19601f820116820180604052508101906108789190611263565b7f000000000000000000000000000000000000000000000000000000000000000073ffffffffffffffffffffffffffffffffffffffff166370a08231306040518263ffffffff1660e01b81526004016108d19190611233565b602060405180830381865afa1580156108ee573d6000803e3d6000fd5b505050506040513d601f19601f820116820180604052508101906109129190611263565b610ecb565b92915050565b60007f000000000000000000000000000000000000000000000000000000000000000073ffffffffffffffffffffffffffffffffffffffff168373ffffffffffffffffffffffffffffffffffffffff1614806109c457507f000000000000000000000000000000000000000000000000000000000000000073ffffffffffffffffffffffffffffffffffffffff168373ffffffffffffffffffffffffffffffffffffffff16145b610a03576040517f08c379a00000000000000000000000000000000000000000000000000000000081526004016109fa906115fb565b60405180910390fd5b60008211610a46576040517f08c379a0000000000000000000000000000000000000000000000000000000008152600401610a3d90611667565b60405180910390fd5b60007f000000000000000000000000000000000000000000000000000000000000000073ffffffffffffffffffffffffffffffffffffffff168473ffffffffffffffffffffffffffffffffffffffff1614905060008060008084610af1577f00000000000000000000000000000000000000000000000000000000000000007f0000000000000000000000000000000000000000000000000000000000000000600154600054610b3a565b7f00000000000000000000000000000000000000000000000000000000000000007f00000000000000000000000000000000000000000000000000000000000000006000546001545b93509350935093508373ffffffffffffffffffffffffffffffffffffffff166323b872dd33308a6040518463ffffffff1660e01b8152600401610b7f939291906114a0565b6020604051808303816000875af1158015610b9e573d6000803e3d6000fd5b505050506040513d601f19601f82011682018060405250810190610bc29190611473565b5060006103e86103e589610bd691906112bf565b610be09190611330565b90508083610bee9190611687565b8183610bfa91906112bf565b610c049190611330565b96508373ffffffffffffffffffffffffffffffffffffffff1663a9059cbb33896040518363ffffffff1660e01b8152600401610c41929190611412565b6020604051808303816000875af1158015610c60573d6000803e3d6000fd5b505050506040513d601f19601f82011682018060405250810190610c849190611473565b50610dc17f000000000000000000000000000000000000000000000000000000000000000073ffffffffffffffffffffffffffffffffffffffff166370a08231306040518263ffffffff1660e01b8152600401610ce19190611233565b602060405180830381865afa158015610cfe573d6000803e3d6000fd5b505050506040513d601f19601f82011682018060405250810190610d229190611263565b7f000000000000000000000000000000000000000000000000000000000000000073ffffffffffffffffffffffffffffffffffffffff166370a08231306040518263ffffffff1660e01b8152600401610d7b9190611233565b602060405180830381865afa158015610d98573d6000803e3d6000fd5b505050506040513d601f19601f82011682018060405250810190610dbc9190611263565b610ecb565b8873ffffffffffffffffffffffffffffffffffffffff163373ffffffffffffffffffffffffffffffffffffffff167ffa2dda1cc1b86e41239702756b13effbc1a092b5c57e3ad320fbe4f3b13fe2358a8a604051610e2092919061117b565b60405180910390a350505050505092915050565b7f000000000000000000000000000000000000000000000000000000000000000081565b80600360008473ffffffffffffffffffffffffffffffffffffffff1673ffffffffffffffffffffffffffffffffffffffff1681526020019081526020016000206000828254610ea791906113de565b925050819055508060026000828254610ec091906113de565b925050819055505050565b81600081905550806001819055505050565b60006003821115610f445781905060006001600284610efc9190611330565b610f069190611687565b90505b81811015610f3e578091506002818285610f239190611330565b610f2d9190611687565b610f379190611330565b9050610f09565b50610f52565b60008214610f5157600190505b5b919050565b600081831115610f675781610f69565b825b905092915050565b80600360008473ffffffffffffffffffffffffffffffffffffffff1673ffffffffffffffffffffffffffffffffffffffff1681526020019081526020016000206000828254610fc09190611687565b925050819055508060026000828254610fd99190611687565b925050819055505050565b600073ffffffffffffffffffffffffffffffffffffffff82169050919050565b6000819050919050565b600061102961102461101f84610fe4565b611004565b610fe4565b9050919050565b600061103b8261100e565b9050919050565b600061104d82611030565b9050919050565b61105d81611042565b82525050565b60006020820190506110786000830184611054565b92915050565b6000819050919050565b6110918161107e565b82525050565b60006020820190506110ac6000830184611088565b92915050565b600080fd5b60006110c282610fe4565b9050919050565b6110d2816110b7565b81146110dd57600080fd5b50565b6000813590506110ef816110c9565b92915050565b60006020828403121561110b5761110a6110b2565b5b6000611119848285016110e0565b91505092915050565b61112b8161107e565b811461113657600080fd5b50565b60008135905061114881611122565b92915050565b600060208284031215611164576111636110b2565b5b600061117284828501611139565b91505092915050565b60006040820190506111906000830185611088565b61119d6020830184611088565b9392505050565b600080604083850312156111bb576111ba6110b2565b5b60006111c985828601611139565b92505060206111da85828601611139565b9150509250929050565b600080604083850312156111fb576111fa6110b2565b5b6000611209858286016110e0565b925050602061121a85828601611139565b9150509250929050565b61122d816110b7565b82525050565b60006020820190506112486000830184611224565b92915050565b60008151905061125d81611122565b92915050565b600060208284031215611279576112786110b2565b5b60006112878482850161124e565b91505092915050565b7f4e487b7100000000000000000000000000000000000000000000000000000000600052601160045260246000fd5b60006112ca8261107e565b91506112d58361107e565b92508282026112e38161107e565b915082820484148315176112fa576112f9611290565b5b5092915050565b7f4e487b7100000000000000000000000000000000000000000000000000000000600052601260045260246000fd5b600061133b8261107e565b91506113468361107e565b92508261135657611355611301565b5b828204905092915050565b600082825260208201905092915050565b7f616d6f756e7430206f7220616d6f756e7431203d203000000000000000000000600082015250565b60006113a8601683611361565b91506113b382611372565b602082019050919050565b600060208201905081810360008301526113d78161139b565b9050919050565b60006113e98261107e565b91506113f48361107e565b925082820390508181111561140c5761140b611290565b5b92915050565b60006040820190506114276000830185611224565b6114346020830184611088565b9392505050565b60008115159050919050565b6114508161143b565b811461145b57600080fd5b50565b60008151905061146d81611447565b92915050565b600060208284031215611489576114886110b2565b5b60006114978482850161145e565b91505092915050565b60006060820190506114b56000830186611224565b6114c26020830185611224565b6114cf6040830184611088565b949350505050565b7f78202f207920213d206478202f20647900000000000000000000000000000000600082015250565b600061150d601083611361565b9150611518826114d7565b602082019050919050565b6000602082019050818103600083015261153c81611500565b9050919050565b7f736861726573203d203000000000000000000000000000000000000000000000600082015250565b6000611579600a83611361565b915061158482611543565b602082019050919050565b600060208201905081810360008301526115a88161156c565b9050919050565b7f696e76616c696420746f6b656e00000000000000000000000000000000000000600082015250565b60006115e5600d83611361565b91506115f0826115af565b602082019050919050565b60006020820190508181036000830152611614816115d8565b9050919050565b7f616d6f756e7420696e203d203000000000000000000000000000000000000000600082015250565b6000611651600d83611361565b915061165c8261161b565b602082019050919050565b6000602082019050818103600083015261168081611644565b9050919050565b60006116928261107e565b915061169d8361107e565b92508282019050808211156116b5576116b4611290565b5b9291505056fea264697066735822122036cddda41af0cee016ee7ad11bcdd2f09cdca80e78a502b164387d9f3ca454a364736f6c63430008110033",
  "linkReferences": {},
  "deployedLinkReferences": {}
}